:100000000C9434000C9449000C9449000C94490061
:100010000C9449000C9449000C9449000C9449003C
:100020000C9449000C9449000C9449000C9449002C
:100030000C9449000C9449000C9449000C9449001C
:100040000C9449000C9449000C9449000C9449000C
:100050000C9449000C9449000C9449000C944900FC
:100060000C9449000C94490011241FBECFEFD8E036
:10007000DEBFCDBF11E0A0E0B1E0EEEEFAE002C0DD
:1000800005900D92A432B107D9F70E94E9020C94B1
:1000900075050C9400004F925F926F927F92AF9221
:1000A000BF92CF92DF92EF92FF921F93CF93DF9395
:1000B000CDB7DEB764970FB6F894DEBF0FBECDBFE5
:1000C000182F9A01AB0160E070E08AE794E40E9487
:1000D000D2031E3040F4183080F028EF210F55E293
:1000E000C52ED12C0EC0143110F0212F0AC022EFE2
:1000F000210F48E2C42ED12C04C0212F3BE2C32E95
:10010000D12CF601308141E050E001C0440F2A9526
:10011000EAF7232F242B208320E030E040E05FE348
:100120000E9408052B013C010E9444046B01072E2C
:10013000000C880B990B0E947C049B01AC01C3014D
:10014000B2010E94650320E030E040E251E40E94E9
:1001500008052B013C010E9444045B01072E000CA2
:10016000880B990B0E947C049B01AC01C301B20176
:100170000E94650320E030E040E251E40E9408055F
:100180000E9444041A86198689859A8586179707DE
:1001900098F482E000000000000000000000000071
:1001A00000000000000000008150A1F789859A85B9
:1001B00001969A878987E8CF18861F8221E030E070
:1001C0008F8198858A159B05E0F43E832D838D8170
:1001D0009E81449780F400000000000000000000B1
:1001E000000000000000000000008D819E8101964B
:1001F0009E838D83ECCF8F819885019698878F831E
:10020000DFCF1C821B8221E030E08B819C818C152A
:100210009D05E0F43A83298389819A81883C910580
:1002200078F4000000000000000000000000000062
:100230000000000089819A8101969A838983ECCF1E
:100240008B819C8101969C838B83DFCF1E3038F499
:10025000183060F0185025E2E22EF12C0AC014315B
:1002600040F41E5098E2E92EF12C03C08BE2E82EF8
:10027000F12C81E090E001C0880F1A95EAF72EE09A
:1002800031E02251314021F4F7019081892B04C0E3
:10029000F70190818095892380831C8A1B8A8B8932
:1002A0009C898617970798F482E000000000000000
:1002B000000000000000000000000000000081506D
:1002C000A1F78B899C8901969C8B8B8BE8CF1A8A2E
:1002D000198A21E030E089899A898A159B05E0F422
:1002E000388B2F878F859889449780F40000000011
:1002F00000000000000000000000000000000000FE
:100300008F8598890196988B8F87ECCF89899A89F8
:1003100001969A8B898BDFCF1E861D8621E030E007
:100320008D859E858C159D05E0F43C872B878B85FC
:100330009C85883C910578F40000000000000000D6
:10034000000000000000000000008B859C850196E5
:100350009C878B87ECCF8D859E8501969E878D87A8
:10036000DFCF64960FB6F894DEBF0FBECDBFDF912E
:10037000CF911F91FF90EF90DF90CF90BF90AF9003
:100380007F906F905F904F900895E0910401F091FD
:10039000050180E4848387E882831682089521E042
:1003A00030E001C0220F8A95EAF7E0910401F09154
:1003B00005018681282B26830895E0910401F091A0
:1003C0000501928180910701982381E009F080E086
:1003D0000895E0910401F091050192818091060158
:1003E0008095892B0895E0910401F0910501948195
:1003F0009074892B8483928180910701892B828359
:100400000E94DD018823E1F3E0910401F0910501F0
:100410008081218190E0922B0895E0910801F09174
:10042000090187E68483158280910C018183809184
:100430000D0182830895E0910801F0910901209156
:100440000B0190819223E9F386830895E0910801DE
:10045000F0910901908180910A01982381E009F0CF
:1004600080E008950E9426028111FCCFE0910801EE
:10047000F091090186810895CF93DF93EC01899172
:10048000882319F00E941B02FACFDF91CF910895C3
:10049000EF92FF920F931F93CF93DF93CDB7DEB709
:1004A00028970FB6F894DEBF0FBECDBF8B019E011B
:1004B0002F5F3F4F7901F9012AE030E0AF014E197B
:1004C0005F09401751073CF4B9010E943D03C096F3
:1004D0008193CB01F3CF0E0D1F1D01501109C801EF
:1004E0008E199F0997FD05C0F80180810E941B02AB
:1004F000F4CF28960FB6F894DEBF0FBECDBFDF91C4
:10050000CF911F910F91FF90EF9008958F929F923E
:10051000AF92BF92CF92DF92EF92FF920F931F9311
:10052000CF93DF934B015C01EA0189010E944404EF
:100530006B017C01BE01C6010E94480282E291E08B
:100540000E943C02B601DD0C880B990B0E947C04D2
:100550009B01AC01C501B4010E94650320E030E0BD
:1005600040E251E40E9408054B015C01C0E0D0E08C
:10057000C017D1070CF5C501B4010E9444046B01FA
:100580007C0161E070E0C6010E944802B601DD0C0A
:10059000880B990B0E947C049B01AC01C501B4013E
:1005A0000E94650320E030E040E251E40E9408052B
:1005B0004B015C012196DCCFDF91CF911F910F9110
:1005C000FF90EF90DF90CF90BF90AF909F908F9073
:1005D000089585E191E08C51914019F453985B9A0C
:1005E00002C05B98539A3A98429A0E940D020E9468
:1005F000C50182E00E94CF01CEE0D1E082E00E94FE
:10060000F3018C016091020170910301072E000C2F
:10061000880B990B0E947C046B017C01B801110FBF
:10062000880B990B0E947C049B01AC01C701B601A9
:100630000E94080520E030EF4FE755E40E94D20306
:100640000E944404209100013091010126173707D0
:1006500044F081E0C231D80711F45B9ACFCF5B98A8
:10066000CDCF072E000C880B990B0E947C04AB01A8
:10067000BC0183E00E944B00C1CF97FB072E16F40C
:10068000009407D077FD09D00E94510307FC05D0E4
:100690003EF4909581959F4F0895709561957F4F99
:1006A0000895AA1BBB1B51E107C0AA1FBB1FA617B9
:1006B000B70710F0A61BB70B881F991F5A95A9F70B
:1006C00080959095BC01CD0108955058BB27AA276D
:1006D0000E947D030C94CE040E94C00438F00E9456
:1006E000C70420F039F49F3F19F426F40C94BD049C
:1006F0000EF4E095E7FB0C94B704E92F0E94DF04A9
:1007000058F3BA17620773078407950720F079F446
:10071000A6F50C9401050EF4E0950B2EBA2FA02D32
:100720000B01B90190010C01CA01A0011124FF279E
:10073000591B99F0593F50F4503E68F11A16F04099
:10074000A22F232F342F4427585FF3CF4695379598
:100750002795A795F0405395C9F77EF41F16BA0B5D
:10076000620B730B840BBAF09150A1F0FF0FBB1F0B
:10077000661F771F881FC2F70EC0BA0F621F731F54
:10078000841F48F4879577956795B795F7959E3FB1
:1007900008F0B0CF9395880F08F09927EE0F979542
:1007A000879508950E94E6030C94CE040E94C70426
:1007B00058F00E94C00440F029F45F3F29F00C94E7
:1007C000B70451110C9402050C94BD040E94DF047F
:1007D00068F39923B1F3552391F3951B550BBB2770
:1007E000AA2762177307840738F09F5F5F4F220FB5
:1007F000331F441FAA1FA9F335D00E2E3AF0E0E8AC
:1008000032D091505040E695001CCAF72BD0FE2FF5
:1008100029D0660F771F881FBB1F26173707480789
:10082000AB07B0E809F0BB0B802DBF01FF27935841
:100830005F4F3AF09E3F510578F00C94B7040C944A
:1008400002055F3FE4F3983ED4F38695779567956C
:10085000B795F7959F5FC9F7880F911D9695879576
:1008600097F90895E1E0660F771F881FBB1F621795
:1008700073078407BA0720F0621B730B840BBA0B53
:10088000EE1F88F7E09508950E944B046894B1111B
:100890000C94020508950E94E70488F09F5798F091
:1008A000B92F9927B751B0F0E1F0660F771F881F75
:1008B000991F1AF0BA95C9F714C0B13091F00E948F
:1008C0000105B1E008950C940105672F782F882762
:1008D000B85F39F0B93FCCF3869577956795B395B6
:1008E000D9F73EF490958095709561957F4F8F4F25
:1008F0009F4F0895E89409C097FB3EF4909580952A
:10090000709561957F4F8F4F9F4F9923A9F0F92FD5
:1009100096E9BB279395F695879577956795B79553
:10092000F111F8CFFAF4BB0F11F460FF1BC06F5F39
:100930007F4F8F4F9F4F16C0882311F096E911C04B
:10094000772321F09EE8872F762F05C0662371F06C
:1009500096E8862F70E060E02AF09A95660F771F80
:10096000881FDAF7880F9695879597F9089597F974
:100970009F6780E870E060E008959FEF80EC089545
:1009800000240A941616170618060906089500246E
:100990000A9412161306140605060895092E0394E8
:1009A000000C11F4882352F0BB0F40F4BF2B11F45C
:1009B00060FF04C06F5F7F4F8F4F9F4F089557FDBB
:1009C0009058440F551F59F05F3F71F04795880FBD
:1009D00097FB991F61F09F3F79F087950895121654
:1009E00013061406551FF2CF4695F1DF08C0161600
:1009F00017061806991FF1CF8695710561050894B1
:100A00000895E894BB2766277727CB0197F90895C7
:100A10000E941B050C94CE040E94C00438F00E9472
:100A2000C70420F0952311F00C94B7040C94BD0476
:100A300011240C9402050E94DF0470F3959FC1F30A
:100A4000950F50E0551F629FF001729FBB27F00D7C
:100A5000B11D639FAA27F00DB11DAA1F649F6627D1
:100A6000B00DA11D661F829F2227B00DA11D621F20
:100A7000739FB00DA11D621F839FA00D611D221FDA
:100A8000749F3327A00D611D231F849F600D211DBE
:100A9000822F762F6A2F11249F5750409AF0F1F041
:100AA00088234AF0EE0FFF1FBB1F661F771F881FAA
:100AB00091505040A9F79E3F510580F00C94B70427
:100AC0000C9402055F3FE4F3983ED4F38695779546
:100AD0006795B795F795E7959F5FC1F7FE2B880F50
:0E0AE000911D9695879597F90895F894FFCF8C
:100AEE001E00102778001040C000802018064F46C8
:100AFE0046004F4E004F555450555400494E5055D8
:040B0E0054002C0063
:00000001FF
