:100000000C9434000C9449000C9449000C94490061
:100010000C9449000C9449000C9449000C9449003C
:100020000C9449000C9449000C9449000C9449002C
:100030000C9449000C9449000C9449000C9449001C
:100040000C9449000C9449000C9449000C9449000C
:100050000C9449000C9449000C9449000C944900FC
:100060000C9449000C94490011241FBECFEFD8E036
:10007000DEBFCDBF11E0A0E0B1E0E6ECF7E002C0EA
:1000800005900D92AC3BB107D9F70E9490000C94FB
:10009000E1030C940000CF93DF9300D000D0CDB7E4
:1000A000DEB719821A821B821C8289819A81AB81F8
:1000B000BC81803D9D4DA640B10560F489819A8147
:1000C000AB81BC810196A11DB11D89839A83AB834D
:1000D000BC83EBCF0F900F900F900F90DF91CF91DB
:1000E0000895E091BA01F091BB0180818470808312
:1000F000E091B801F091B901808184608083089516
:10010000E091BA01F091BB01808184608083089501
:10011000E091BA01F091BB0180818B7F80830895CB
:10012000CF93DF93CDB7DEB72A970FB6F894DEBF33
:100130000FBECDBF0E9471002091000130910101DE
:10014000032E000C440B550B60E879EA83E090E045
:100150000E947601890182E091E09A878987A985CA
:10016000BA8512966D917C911397161617063CF47A
:10017000C8010E9462016B01E12CF12C14C0719541
:1001800061957109C8010E94620180E090E00E94BF
:10019000E80220E030E040EC5FE30E9474030E943C
:1001A000B0026B017C01E985FA85608171811616C8
:1001B000170654F0C6019C010197232B09F45DC07A
:1001C000000000000000F7CF072E000C880B990BF1
:1001D0000E94E8029B01AC0160E074E284E799E4CC
:1001E0000E943E022B013C01A8EEB3E0A70196015C
:1001F0000E9495016D837E838F839887812C912C3B
:1002000054018D819E81AF81B88588169906AA0612
:10021000BB0698F50E94800020E030E040E05FE3FC
:10022000C301B2010E9474030E94B00269837A8301
:100230008B839C8389819A819C010197232B21F0D8
:10024000000000000000F8CF0E94880089819A8198
:100250009C010197232B21F0000000000000F8CF43
:10026000C501B4010E94E602A30192010E94D201DD
:100270000E94B7024B015C01C4CFC601A1E0CA1ABB
:10028000D108892B21F0000000000000F6CFE9859D
:10029000FA853496FA87E987E65BF14009F05FCF8B
:1002A00088EE93E09C010197232B09F445CF28EEBB
:1002B00033E0A90121503109452BA1F300000000D2
:1002C0000000F7CFAA1BBB1B51E107C0AA1FBB1F31
:1002D000A617B70710F0A61BB70B881F991F5A95D2
:1002E000A9F780959095BC01CD010895052E97FB47
:1002F0001EF400940E948D0157FD07D00E94A001BA
:1003000007FC03D04EF40C948D0150954095309528
:1003100021953F4F4F4F5F4F089590958095709571
:1003200061957F4F8F4F9F4F08950E94C201A59FF7
:10033000900DB49F900DA49F800D911D11240895E0
:10034000A1E21A2EAA1BBB1BFD010DC0AA1FBB1FD9
:10035000EE1FFF1FA217B307E407F50720F0A21B4B
:10036000B30BE40BF50B661F771F881F991F1A94B8
:1003700069F760957095809590959B01AC01BD01E2
:10038000CF010895A29FB001B39FC001A39F700D3C
:10039000811D1124911DB29F700D811D1124911D8D
:1003A00008955058BB27AA270E94E9010C943A03EC
:1003B0000E942C0338F00E94330320F039F49F3F51
:1003C00019F426F40C9429030EF4E095E7FB0C9441
:1003D0002303E92F0E944B0358F3BA1762077307F0
:1003E0008407950720F079F4A6F50C946D030EF4BC
:1003F000E0950B2EBA2FA02D0B01B90190010C0135
:10040000CA01A0011124FF27591B99F0593F50F44C
:10041000503E68F11A16F040A22F232F342F4427A4
:10042000585FF3CF469537952795A795F04053959C
:10043000C9F77EF41F16BA0B620B730B840BBAF06C
:100440009150A1F0FF0FBB1F661F771F881FC2F7D7
:100450000EC0BA0F621F731F841F48F487957795EB
:100460006795B795F7959E3F08F0B0CF9395880FA5
:1004700008F09927EE0F9795879508950E945202EC
:100480000C943A030E94330358F00E942C0340F06E
:1004900029F45F3F29F00C94230351110C946E034F
:1004A0000C9429030E944B0368F39923B1F355235D
:1004B00091F3951B550BBB27AA2762177307840777
:1004C00038F09F5F5F4F220F331F441FAA1FA9F30D
:1004D00035D00E2E3AF0E0E832D091505040E695FB
:1004E000001CCAF72BD0FE2F29D0660F771F881F5C
:1004F000BB1F261737074807AB07B0E809F0BB0B4F
:10050000802DBF01FF2793585F4F3AF09E3F510562
:1005100078F00C9423030C946E035F3FE4F3983E51
:10052000D4F3869577956795B795F7959F5FC9F74B
:10053000880F911D9695879597F90895E1E0660FCC
:10054000771F881FBB1F621773078407BA0720F045
:10055000621B730B840BBA0BEE1F88F7E0950895AE
:100560000E94B7026894B1110C946E0308950E9422
:10057000530388F09F5798F0B92F9927B751B0F0DF
:10058000E1F0660F771F881F991F1AF0BA95C9F717
:1005900014C0B13091F00E946D03B1E008950C9445
:1005A0006D03672F782F8827B85F39F0B93FCCF3F8
:1005B000869577956795B395D9F73EF49095809594
:1005C000709561957F4F8F4F9F4F0895E89409C0B4
:1005D00097FB3EF490958095709561957F4F8F4F76
:1005E0009F4F9923A9F0F92F96E9BB279395F6958C
:1005F000879577956795B795F111F8CFFAF4BB0F0A
:1006000011F460FF1BC06F5F7F4F8F4F9F4F16C06D
:10061000882311F096E911C0772321F09EE8872FF7
:10062000762F05C0662371F096E8862F70E060E0B3
:100630002AF09A95660F771F881FDAF7880F96952C
:10064000879597F9089597F99F6780E870E060E0D3
:1006500008959FEF80EC089500240A94161617065B
:1006600018060906089500240A94121613061406A3
:1006700005060895092E0394000C11F4882352F006
:10068000BB0F40F4BF2B11F460FF04C06F5F7F4FBE
:100690008F4F9F4F089557FD9058440F551F59F0A5
:1006A0005F3F71F04795880F97FB991F61F09F3F5F
:1006B00079F087950895121613061406551FF2CF88
:1006C0004695F1DF08C0161617061806991FF1CFD8
:1006D00086957105610508940895E894BB276627FF
:1006E0007727CB0197F908950E9487030C943A036A
:1006F0000E942C0338F00E94330320F0952311F060
:100700000C9423030C94290311240C946E030E946F
:100710004B0370F3959FC1F3950F50E0551F629FF7
:10072000F001729FBB27F00DB11D639FAA27F00D4A
:10073000B11DAA1F649F6627B00DA11D661F829F71
:100740002227B00DA11D621F739FB00DA11D621F56
:10075000839FA00D611D221F749F3327A00D611D73
:10076000231F849F600D211D822F762F6A2F112455
:100770009F5750409AF0F1F088234AF0EE0FFF1F88
:10078000BB1F661F771F881F91505040A9F79E3FDF
:10079000510580F00C9423030C946E035F3FE4F347
:1007A000983ED4F3869577956795B795F795E79535
:1007B0009F5FC1F7FE2B880F911D9695879597F93E
:0607C0000895F894FFCF3C
:1007C6006400060104008801040088010400880111
:1007D60004008801080088010400060108000601DB
:1007E6000200000004008801080088010400880156
:1007F60004008801020000000400060104008801CC
:1008060004008801040088010400880108008801AA
:1008160002004A0108004A0104004A0104004A0194
:100826000400260104002601040006010800060152
:10083600020000000400060104000601040026016F
:1008460004004A01020006010400260104004A01D0
:10085600020006010400260104004A0104002601E4
:10086600080026010200000004004A010200F70009
:0C08760002000601010023002400250000
:00000001FF
