:100000000C9434000C9449000C9449000C94490061
:100010000C9449000C9449000C9449000C9449003C
:100020000C9449000C9449000C9449000C9449002C
:100030000C9449000C9449000C9449000C9449001C
:100040000C9449000C9449000C9449000C9449000C
:100050000C9449000C9449000C9449000C944900FC
:100060000C9449000C94490011241FBECFEFD8E036
:10007000DEBFCDBF11E0A0E0B1E0E8E8F8E002C0EB
:1000800005900D92A035B107D9F70E9474010C9428
:1000900042040C940000E0910001F091010187E618
:1000A000848315828091040181838091050182837C
:1000B0000895E0910001F0910101209103019081E8
:1000C0009223E9F386830895E0910001F091010104
:1000D000908180910201982381E009F080E00895E9
:1000E0000E9464008111FCCFE0910001F0910101B8
:1000F00086810895CF93DF93EC018991882319F0CD
:100100000E945900FACFDF91CF910895EF92FF92AC
:100110000F931F93CF93DF93CDB7DEB728970FB61A
:10012000F894DEBF0FBECDBF8B019E012F5F3F4F06
:100130007901F9012AE030E0AF014E195F0940175B
:1001400051073CF4B9010E940A02C0968193CB0189
:10015000F3CF0E0D1F1D01501109C8018E199F0903
:1001600097FD05C0F80180810E945900F4CF2896C0
:100170000FB6F894DEBF0FBECDBFDF91CF911F91B8
:100180000F91FF90EF9008958F929F92AF92BF9240
:10019000CF92DF92EF92FF920F931F93CF93DF9353
:1001A0004B015C01EA0189010E9411036B017C0192
:1001B000BE01C6010E9486008DE491E00E947A0093
:1001C000B601DD0C880B990B0E9449039B01AC0121
:1001D000C501B4010E94320220E030E040E251E467
:1001E0000E94D5034B015C01C0E0D0E0C017D107ED
:1001F0000CF5C501B4010E9411036B017C0161E0A3
:1002000070E0C6010E948600B601DD0C880B990BD8
:100210000E9449039B01AC01C501B4010E94320256
:1002200020E030E040E251E40E94D5034B015C0144
:100230002196DCCFDF91CF911F910F91FF90EF902E
:10024000DF90CF90BF90AF909F908F900895E091F6
:100250000601F091070180E4848387E88283168297
:10026000089521E030E001C0220F8A95EAF7E0917D
:100270000601F09107018681282B26830895E091DD
:100280000601F0910701928180910901982381E094
:1002900009F080E00895E0910601F0910701928154
:1002A000809108018095892B0895E0910601F091D5
:1002B000070194819074892B848392818091090134
:1002C000892B82830E943F018823E1F3E09106019C
:1002D000F091070180812181328190910801932B57
:1002E000928390E0922B0895CF93DF93CDB7DEB742
:1002F0002A970FB6F894DEBF0FBECDBF3C98449A44
:100300003A98429A0E944B000E94270184E00E9482
:10031000310182E00E94310101E010E082E00E94A0
:1003200055017C018AE091E00E947A00B701FF0C40
:10033000880B990B0E94490320E030E040EA50E42A
:100340000E94D50320E030EF4FE755E40E949F0262
:1003500023E030E042E050E00E94C4008AE291E0F5
:100360000E947A0084E00E9455017C018FE291E0B6
:100370000E947A00B701FF0C880B990B0E94490379
:1003800020E030E040EA50E40E94D50320E030EF66
:100390004FE755E40E949F0223E030E042E050E046
:1003A0000E94C4008AE291E00E947A008CE291E00F
:1003B0000E947A001A86198689859A8518861F8276
:1003C0008F8198851E821D828D819E811C821B8259
:1003D0008B819C81883E934008F0A0CF1A830983CB
:1003E00089819A81883C910578F400000000000022
:1003F00000000000000000000000000089819A81D8
:1004000001969A838983ECCF8B819C8101969C8392
:100410008B83DECF97FB072E16F4009407D077FD71
:1004200009D00E941E0207FC05D03EF490958195EC
:100430009F4F0895709561957F4F0895AA1BBB1B30
:1004400051E107C0AA1FBB1FA617B70710F0A61BD4
:10045000B70B881F991F5A95A9F780959095BC01F5
:10046000CD0108955058BB27AA270E944A020C9438
:100470009B030E948D0338F00E94940320F039F40E
:100480009F3F19F426F40C948A030EF4E095E7FBE1
:100490000C948403E92F0E94AC0358F3BA17620747
:1004A00073078407950720F079F4A6F50C94CE0322
:1004B0000EF4E0950B2EBA2FA02D0B01B90190017F
:1004C0000C01CA01A0011124FF27591B99F0593FC3
:1004D00050F4503E68F11A16F040A22F232F342F0B
:1004E0004427585FF3CF469537952795A795F04059
:1004F0005395C9F77EF41F16BA0B620B730B840B6E
:10050000BAF09150A1F0FF0FBB1F661F771F881F25
:10051000C2F70EC0BA0F621F731F841F48F487957D
:1005200077956795B795F7959E3F08F0B0CF93956F
:10053000880F08F09927EE0F9795879508950E94E8
:10054000B3020C949B030E94940358F00E948D0305
:1005500040F029F45F3F29F00C94840351110C946E
:10056000CF030C948A030E94AC0368F39923B1F380
:10057000552391F3951B550BBB27AA2762177307C9
:10058000840738F09F5F5F4F220F331F441FAA1F5D
:10059000A9F335D00E2E3AF0E0E832D09150504019
:1005A000E695001CCAF72BD0FE2F29D0660F771FC7
:1005B000881FBB1F261737074807AB07B0E809F0AD
:1005C000BB0B802DBF01FF2793585F4F3AF09E3F32
:1005D000510578F00C9484030C94CF035F3FE4F34F
:1005E000983ED4F3869577956795B795F7959F5F75
:1005F000C9F7880F911D9695879597F90895E1E0C1
:10060000660F771F881FBB1F621773078407BA071F
:1006100020F0621B730B840BBA0BEE1F88F7E0957A
:1006200008950E9418036894B1110C94CF030895A3
:100630000E94B40388F09F5798F0B92F9927B751BB
:10064000B0F0E1F0660F771F881F991F1AF0BA9576
:10065000C9F714C0B13091F00E94CE03B1E0089503
:100660000C94CE03672F782F8827B85F39F0B93FF5
:10067000CCF3869577956795B395D9F73EF4909529
:100680008095709561957F4F8F4F9F4F0895E894A7
:1006900009C097FB3EF490958095709561957F4FCA
:1006A0008F4F9F4F9923A9F0F92F96E9BB27939578
:1006B000F695879577956795B795F111F8CFFAF488
:1006C000BB0F11F460FF1BC06F5F7F4F8F4F9F4FB9
:1006D00016C0882311F096E911C0772321F09EE817
:1006E000872F762F05C0662371F096E8862F70E07D
:1006F00060E02AF09A95660F771F881FDAF7880F57
:100700009695879597F9089597F99F6780E870E027
:1007100060E008959FEF80EC089500240A94161677
:10072000170618060906089500240A9412161306DF
:10073000140605060895092E0394000C11F488236D
:1007400052F0BB0F40F4BF2B11F460FF04C06F5F89
:100750007F4F8F4F9F4F089557FD9058440F551F5F
:1007600059F05F3F71F04795880F97FB991F61F033
:100770009F3F79F087950895121613061406551FAA
:10078000F2CF4695F1DF08C0161617061806991F16
:10079000F1CF86957105610508940895E894BB270B
:1007A00066277727CB0197F908950E94E8030C94F8
:1007B0009B030E948D0338F00E94940320F0952340
:1007C00011F00C9484030C948A0311240C94CF032D
:1007D0000E94AC0370F3959FC1F3950F50E0551F35
:1007E000629FF001729FBB27F00DB11D639FAA2786
:1007F000F00DB11DAA1F649F6627B00DA11D661FD5
:10080000829F2227B00DA11D621F739FB00DA11DF5
:10081000621F839FA00D611D221F749F3327A00DAF
:10082000611D231F849F600D211D822F762F6A2F4B
:1008300011249F5750409AF0F1F088234AF0EE0FB0
:10084000FF1FBB1F661F771F881F91505040A9F7DD
:100850009E3F510580F00C9484030C94CF035F3FBE
:10086000E4F3983ED4F3869577956795B795F79519
:10087000E7959F5FC1F7FE2B880F911D9695879591
:0808800097F90895F894FFCFE9
:10088800C00080201806780010404D6564696369CF
:10089800C3B36E20646520666F746F2072657369D8
:1008A8007374656E6369613A200020560A0D004D25
:1008B8006564696369C3B36E20646520706F74658D
:1008C8006E6369C3B36D6574726F3A20002C0000C3
:00000001FF
