:100000000C9434000C9449000C9449000C94490061
:100010000C9449000C9449000C9449000C9449003C
:100020000C9449000C9449000C9449000C9449002C
:100030000C9449000C9449000C9449000C9449001C
:100040000C9449000C9449000C9449000C9449000C
:100050000C9449000C9449000C9449000C944900FC
:100060000C9449000C94490011241FBECFEFD8E036
:10007000DEBFCDBF11E0A0E0B1E0E8E8F8E002C0EB
:1000800005900D92A631B107D9F70E94E8010C94B2
:1000900042040C940000E0910001F091010187E816
:1000A00082830895E0910001F0910101623021F016
:1000B000633021F4148204C090EC948390E4948320
:1000C00094818770892B848382818064828382817A
:1000D0008081218190E0922B0895E0910201F091BE
:1000E000030180818268808381818B61818384E0C8
:1000F000878381EE8683089520E030E044E353E473
:100100000E94A60220E030E04CE452E40E94D503B5
:1001100020E030E04CE452E40E943A020E941803CE
:10012000E0910201F09103017187608708958830A2
:10013000910524F08E309105F4F066C061157105CB
:1001400029F4E0910401F09105011DC061307105B1
:1001500029F4E0910401F09105012AC06230710593
:1001600029F4E0910401F091050131C0E09108010A
:10017000F09109013CC008976115710591F4E09177
:100180001001F0911101308141E050E0BA0102C04C
:10019000660F771F8A95E2F7CB01809583238083D2
:1001A00030C06130710561F4E0911001F0911101EE
:1001B000908101C0660F8A95EAF7692B608321C0A0
:1001C0006230710581F4E0911001F09111013081EC
:1001D00041E050E0BA0102C0660F771F8A95E2F74E
:1001E000CB018327DCCFE0911401F0911501208130
:1001F00030E0A90102C0559547958A95E2F7242F72
:100200002170822F90E008950E976115710529F4F1
:10021000E0910A01F0910B01B6CF6130710529F42C
:10022000E0910A01F0910B01C3CF6230710529F40E
:10023000E0910A01F0910B01CACFE0910E01F0911B
:100240000F01D5CF883091059CF18E309105C4F413
:10025000E0911001F09111014081089721E030E018
:10026000B90102C0660F771F8A95E2F7CB0180952E
:10027000942F98239083E0911201F09113012EC0E6
:10028000E0910A01F0910B0140810E9721E030E0EE
:10029000B90102C0660F771F8A95E2F7CB018095FE
:1002A000942F98239083E0910C01F0910D0116C0DA
:1002B000E0910401F0910501408121E030E0B901B5
:1002C00002C0660F771F8A95E2F7CB018095942FC5
:1002D00098239083E0910601F09107019081892392
:1002E0008083089588309105ACF18E309105C4F477
:1002F000E0911001F09111014081089721E030E078
:10030000B90102C0660F771F8A95E2F7CB01962FDD
:10031000909594239083E0911201F091130130C0E5
:10032000E0910A01F0910B0140810E9721E030E04D
:10033000B90102C0660F771F8A95E2F7CB0180955D
:10034000942F98239083E0910C01F0910D019081FE
:10035000892318C0E0910401F0910501408121E05A
:1003600030E0B90102C0660F771F8A95E2F7CB0132
:10037000962F909594239083E0910601F0910701C8
:100380009081892B808308958530910541F08630D6
:10039000910541F0049741F4E3E2F0E005C0E6E2A4
:1003A000F0E002C0E9E2F0E0808108958530910537
:1003B00041F08630910541F0049741F4E5E2F0E028
:1003C00005C0E8E2F0E002C0EBE2F0E060830895EF
:1003D000CF93DF9300D0CDB7DEB70E946D000E94AF
:1003E0004B0089E090E00E94720161E08EE00E9483
:1003F0005200BC01990F880B990B0E94490320E021
:1004000030E041E654E40E94A60220E030E04CE4F3
:1004100052E40E94D50320E030E04CE452E40E9414
:100420003A020E947C008CE291E00097F1F21A827D
:100430002A812436E0F419822981233228F400002D
:1004400029812F5F2983F8CF000000000000000001
:10045000000000000000000000000000000000009C
:100460000000000000002A812F5F2A83E1CF01975E
:10047000DCCF5058BB27AA270E9451020C949B0343
:100480000E948D0338F00E94940320F039F49F3FBE
:1004900019F426F40C948A030EF4E095E7FB0C940F
:1004A0008403E92F0E94AC0358F3BA17620773075D
:1004B0008407950720F079F4A6F50C94CE030EF48A
:1004C000E0950B2EBA2FA02D0B01B90190010C0164
:1004D000CA01A0011124FF27591B99F0593F50F47C
:1004E000503E68F11A16F040A22F232F342F4427D4
:1004F000585FF3CF469537952795A795F0405395CC
:10050000C9F77EF41F16BA0B620B730B840BBAF09B
:100510009150A1F0FF0FBB1F661F771F881FC2F706
:100520000EC0BA0F621F731F841F48F4879577951A
:100530006795B795F7959E3F08F0B0CF9395880FD4
:1005400008F09927EE0F9795879508950E94BA02B3
:100550000C949B030E94940358F00E948D0340F07A
:1005600029F45F3F29F00C94840351110C94CF03BC
:100570000C948A030E94AC0368F39923B1F35523CA
:1005800091F3951B550BBB27AA27621773078407A6
:1005900038F09F5F5F4F220F331F441FAA1FA9F33C
:1005A00035D00E2E3AF0E0E832D091505040E6952A
:1005B000001CCAF72BD0FE2F29D0660F771F881F8B
:1005C000BB1F261737074807AB07B0E809F0BB0B7E
:1005D000802DBF01FF2793585F4F3AF09E3F510592
:1005E00078F00C9484030C94CF035F3FE4F3983EBF
:1005F000D4F3869577956795B795F7959F5FC9F77B
:10060000880F911D9695879597F90895E1E0660FFB
:10061000771F881FBB1F621773078407BA0720F074
:10062000621B730B840BBA0BEE1F88F7E0950895DD
:100630000E94B40388F09F5798F0B92F9927B751BB
:10064000B0F0E1F0660F771F881F991F1AF0BA9576
:10065000C9F714C0B13091F00E94CE03B1E0089503
:100660000C94CE03672F782F8827B85F39F0B93FF5
:10067000CCF3869577956795B395D9F73EF4909529
:100680008095709561957F4F8F4F9F4F0895E894A7
:1006900009C097FB3EF490958095709561957F4FCA
:1006A0008F4F9F4F9923A9F0F92F96E9BB27939578
:1006B000F695879577956795B795F111F8CFFAF488
:1006C000BB0F11F460FF1BC06F5F7F4F8F4F9F4FB9
:1006D00016C0882311F096E911C0772321F09EE817
:1006E000872F762F05C0662371F096E8862F70E07D
:1006F00060E02AF09A95660F771F881FDAF7880F57
:100700009695879597F9089597F99F6780E870E027
:1007100060E008959FEF80EC089500240A94161677
:10072000170618060906089500240A9412161306DF
:10073000140605060895092E0394000C11F488236D
:1007400052F0BB0F40F4BF2B11F460FF04C06F5F89
:100750007F4F8F4F9F4F089557FD9058440F551F5F
:1007600059F05F3F71F04795880F97FB991F61F033
:100770009F3F79F087950895121613061406551FAA
:10078000F2CF4695F1DF08C0161617061806991F16
:10079000F1CF86957105610508940895E894BB270B
:1007A00066277727CB0197F908950E94E8030C94F8
:1007B0009B030E948D0338F00E94940320F0952340
:1007C00011F00C9484030C948A0311240C94CF032D
:1007D0000E94AC0370F3959FC1F3950F50E0551F35
:1007E000629FF001729FBB27F00DB11D639FAA2786
:1007F000F00DB11DAA1F649F6627B00DA11D661FD5
:10080000829F2227B00DA11D621F739FB00DA11DF5
:10081000621F839FA00D611D221F749F3327A00DAF
:10082000611D231F849F600D211D822F762F6A2F4B
:1008300011249F5750409AF0F1F088234AF0EE0FB0
:10084000FF1FBB1F661F771F881F91505040A9F7DD
:100850009E3F510580F00C9484030C94CF035F3FBE
:10086000E4F3983ED4F3869577956795B795F79519
:10087000E7959F5FC1F7FE2B880F911D9695879591
:0808800097F90895F894FFCFE9
:10088800780080002B002A00290028002700260075
:06089800250024002300EE
:00000001FF
