:100000000C9434000C9451000C9451000C94510049
:100010000C9451000C9451000C9451000C9451001C
:100020000C9451000C9451000C9451000C94CF018D
:100030000C9451000C9451000C9451000C945100FC
:100040000C9451000C9451000C9451000C945100EC
:100050000C9451000C9451000C9451000C945100DC
:100060000C9451000C94510011241FBECFEFD8E026
:10007000DEBFCDBF11E0A0E0B1E0ECEBF8E002C0E4
:1000800005900D92AA30B107D9F721E0AAE0B1E0BE
:1000900001C01D92A331B207E1F70E94F9010C944F
:1000A0005C040C940000E0910001F09101011582C4
:1000B00089E1848386E0828388E181830895E091E9
:1000C0000001F0910101908195FFFDCF8683089595
:1000D000E0910001F0910101808187FFFDCF8681D1
:1000E0000895CF93DF93EC018991882319F00E9442
:1000F0005F00FACFDF91CF910895CF92DF92EF9218
:10010000FF920F931F93CF93DF938C016C01C0E09C
:10011000D0E07B0181E0E81AF1080E946800F60156
:1001200081936F012196882319F0CE15DF05ACF37A
:10013000C00FD11F1882802FDF91CF911F910F9197
:10014000FF90EF90DF90CF9008954F925F926F9263
:100150007F928F929F92AF92BF92CF92DF92EF9257
:10016000FF920F931F93CF93DF93CDB7DEB72A97FC
:100170000FB6F894DEBF0FBECDBF6B017C018A01C4
:10018000CE0101965C018AE0F50111928A95E9F7AA
:10019000C114D104E104F104C9F480E32A960FB636
:1001A000F894DEBF0FBECDBFDF91CF911F910F91AD
:1001B000FF90EF90DF90CF90BF90AF909F908F9087
:1001C0007F906F905F904F900C945F00F7FE0BC094
:1001D0008DE20E945F00F094E094D094C094C11C22
:1001E000D11CE11CF11C45018AE0482E512C612CE8
:1001F000712CC701B601A30192010E945402F401BF
:1002000061934F0169017A01CF018A199B09C114D9
:10021000D104E104F10469F79801215031092A3031
:10022000310508F08C017501E00EF11EEA14FB04A3
:1002300039F0F70182917F01805D0E945F00F6CF67
:100240002A960FB6F894DEBF0FBECDBFDF91CF91D7
:100250001F910F91FF90EF90DF90CF90BF90AF90E4
:100260009F908F907F906F905F904F900895AB011B
:100270006630710514F045E050E0BC01990F880B21
:10028000990B0C94A5008F929F92AF92BF92CF9240
:10029000DF92EF92FF920F931F93CF93DF936B0147
:1002A0007C018A01E9010E9407034B015C010E9465
:1002B0003F039B01AC01C701B6010E9495026B018F
:1002C0007C01A801C501B4010E94A5008EE20E9434
:1002D0005F00CB30D10534F41C161D062CF0C1E0B4
:1002E000D0E002C0CAE0D0E020E030E0A901C701C0
:1002F000B6010E94020387FF04C0F7FAF094F7F8F2
:10030000F09400E010E020E030E040E251E4C7016A
:10031000B6010E94EF036B017C010E94070380E39A
:10032000860F0E945F00C701B6010E940703072ED7
:10033000000C880B990B0E943F039B01AC01C70185
:10034000B6010E9495026B017C010F5F1F4FC01721
:10035000D107C9F6DF91CF911F910F91FF90EF90D8
:10036000DF90CF90BF90AF909F908F9008950895A9
:10037000E0910401F09105018081808381818B608F
:100380008183808581678087818582608187E09114
:100390000201F091030180818260808308951F92A1
:1003A0000F920FB60F9211242F938F939F938091EA
:1003B0001101909112010196909312018093110105
:1003C00080911101909112018137924039F410927D
:1003D00012011092110181E080930F0181E080935E
:1003E00010019F918F912F910F900FBE0F901F9032
:1003F00018950E9453000E94B801789420910D0135
:1004000030910E0180910B0190910C0140910F01F0
:10041000413059F410920F012F5F3F4F2C333105BB
:1004200021F440930A0120E030E040910A0141307C
:1004300041F410920A0101968C33910511F480E089
:1004400090E040911001413009F730930E01209364
:100450000D0190930C0180930B0186E091E00E94C6
:10046000710062E070E080910B0190910C010E949C
:10047000370188E091E00E94710062E070E08091B5
:100480000D0190910E010E94370188E091E00E94D9
:100490007100809111019091120162E070E00E9460
:1004A000370110921001AACF052E97FB1EF400947D
:1004B0000E946B0257FD07D00E94730207FC03D015
:1004C0004EF40C946B0250954095309521953F4F1A
:1004D0004F4F5F4F089590958095709561957F4F30
:1004E0008F4F9F4F0895A1E21A2EAA1BBB1BFD013F
:1004F0000DC0AA1FBB1FEE1FFF1FA217B307E40703
:10050000F50720F0A21BB30BE40BF50B661F771F5A
:10051000881F991F1A9469F760957095809590953A
:100520009B01AC01BD01CF0108955058BB27AA27FC
:100530000E94AD020C94B5030E94A70338F00E94FC
:10054000AE0320F039F49F3F19F426F40C94A40371
:100550000EF4E095E7FB0C949E03E92F0E94C6037E
:1005600058F3BA17620773078407950720F079F4E8
:10057000A6F50C94E8030EF4E0950B2EBA2FA02DEF
:100580000B01B90190010C01CA01A0011124FF2740
:10059000591B99F0593F50F4503E68F11A16F0403B
:1005A000A22F232F342F4427585FF3CF469537953A
:1005B0002795A795F0405395C9F77EF41F16BA0BFF
:1005C000620B730B840BBAF09150A1F0FF0FBB1FAD
:1005D000661F771F881FC2F70EC0BA0F621F731FF6
:1005E000841F48F4879577956795B795F7959E3F53
:1005F00008F0B0CF9395880F08F09927EE0F9795E4
:10060000879508950E947A0308F481E008950E9476
:100610000E036894B1110C94E90308950E94CE036F
:1006200088F09F5798F0B92F9927B751B0F0E1F0B3
:10063000660F771F881F991F1AF0BA95C9F714C063
:10064000B13091F00E94E803B1E008950C94E80302
:10065000672F782F8827B85F39F0B93FCCF386959C
:1006600077956795B395D9F73EF4909580957095F9
:1006700061957F4F8F4F9F4F0895E89409C097FB76
:100680003EF490958095709561957F4F8F4F9F4F69
:100690009923A9F0F92F96E9BB279395F6958795AD
:1006A00077956795B795F111F8CFFAF4BB0F11F470
:1006B00060FF1BC06F5F7F4F8F4F9F4F16C0882317
:1006C00011F096E911C0772321F09EE8872F762F4D
:1006D00005C0662371F096E8862F70E060E02AF08E
:1006E0009A95660F771F881FDAF7880F969587957A
:1006F00097F90895990F0008550FAA0BE0E8FEEF4F
:1007000016161706E807F907C0F012161306E407D5
:10071000F50798F0621B730B840B950B39F40A26CE
:1007200061F0232B242B252B21F408950A2609F4AC
:10073000A140A6958FEF811D811D089597F99F67B0
:1007400080E870E060E008959FEF80EC0895002459
:100750000A941616170618060906089500240A9426
:1007600012161306140605060895092E0394000CAC
:1007700011F4882352F0BB0F40F4BF2B11F460FF3B
:1007800004C06F5F7F4F8F4F9F4F089557FD905864
:10079000440F551F59F05F3F71F04795880F97FB45
:1007A000991F61F09F3F79F08795089512161306FF
:1007B0001406551FF2CF4695F1DF08C0161617062E
:1007C0001806991FF1CF8695710561050894089563
:1007D000E894BB2766277727CB0197F908950E94F5
:1007E00002040C94B5030E94A70338F00E94AE03E4
:1007F00020F0952311F00C949E030C94A403112473
:100800000C94E9030E94C60370F3959FC1F3950F02
:1008100050E0551F629FF001729FBB27F00DB11D84
:10082000639FAA27F00DB11DAA1F649F6627B00D14
:10083000A11D661F829F2227B00DA11D621F739FFD
:10084000B00DA11D621F839FA00D611D221F749F0B
:100850003327A00D611D231F849F600D211D822F52
:10086000762F6A2F11249F5750409AF0F1F0882379
:100870004AF0EE0FFF1FBB1F661F771F881F9150A6
:100880005040A9F79E3F510580F00C949E030C94B4
:10089000E9035F3FE4F3983ED4F386957795679537
:1008A000B795F795E7959F5FC1F7FE2B880F911DD0
:0C08B0009695879597F90895F894FFCF6E
:0A08BC00C0006F0080000D003A003C
:00000001FF
