:100000000C9434000C9449000C9449000C94490061
:100010000C9449000C9449000C9449000C9449003C
:100020000C9449000C9449000C9449000C9449002C
:100030000C9449000C9449000C9449000C9449001C
:100040000C9449000C9449000C9449000C9449000C
:100050000C9449000C9449000C9449000C944900FC
:100060000C9449000C94490011241FBECFEFD8E036
:10007000DEBFCDBF11E0A0E0B1E0EAE3F1E002C0F5
:1000800005900D92A630B107D9F70E9490000C940C
:100090009B000C940000CF93DF9300D000D0CDB72D
:1000A000DEB719821A821B821C8289819A81AB81F8
:1000B000BC81803D9D4DA640B10560F489819A8147
:1000C000AB81BC810196A11DB11D89839A83AB834D
:1000D000BC83EBCF0F900F900F900F90DF91CF91DB
:1000E0000895E0910401F091050180818F7D808366
:1000F000E0910201F0910301808180628083089584
:10010000E0910401F091050180818062808308956F
:10011000E0910401F091050180818F7D8083089535
:100120000E9471000E944B000E9480000E944B00C0
:0A0130000E948800F7CFF894FFCF7B
:06013A0023002400250053
:00000001FF
