:100000004AC1000066C1000064C1000062C1000076
:1000100060C100005EC100005CC1000019C20000A8
:1000200058C1000056C1000054C1000052C1000078
:1000300050C100004EC100004CC100004AC1000088
:1000400048C1000046C10000B2C1000042C100002A
:1000500040C100003EC100003CC100003AC10000A8
:1000600038C1000036C100000C944B010C946901AA
:100070000C9469010C9469010C9469010C94690158
:100080000C9469010C9428020C9469010C94690188
:100090000C9469010C9469010C9469010C94690138
:1000A0000C9469010C9469010C9469010C94690128
:1000B0000C94D7010C9469010C9469010C946901AA
:1000C0000C9469010C9469010C9469010C94690108
:1000D0000000000000000000434F4E534F4C45000D
:1000E00000002E082E082E082E082E082C082E0898
:1000F0002E082C0800002C08000100000001000060
:10010000004E554C4C4445560000002E082E082E3B
:10011000082E082E082C082E082E082C0800002C6B
:10012000080002000000000000004E414D45535001
:1001300041434500180DC00E2C082C082C082C0833
:100140002C082C082C0800002C08006E616D696ECC
:100150006974202864657669636573293A0D0A001D
:100160004552524F522047455453544B2025730A51
:10017000006E616D6573706163653A2064657669D0
:100180006365206E616D6520257320746F6F206C30
:100190006F6E670D0A006E616D6573706163653A1D
:1001A0002063616E6E6F74206D6F756E74202564B0
:1001B0000D0A000A0A416C6C20757365722070721A
:1001C0006F636573736573206861766520636F6D17
:1001D000706C657465642E0A0A000A57656C636F5B
:1001E0006D6520746F2058696E75210A0A0D0958D3
:1001F000696E75204F5320436F7079726967687418
:100200002028632920323031322C20323031350A17
:100210000D09446F75676C617320452E20436F6D27
:10022000657220616E64204352432050726573737F
:100230002C20496E632E0A0A0D0958696E75204FED
:100240005320666F72204156522061746D6567615C
:10025000333238702076302E312028632920323016
:1002600032300A0D0952616661656C2049676E6122
:1002700063696F205A7572697461203C72616661AE
:100280004066692E756E636F6D612E6564752E61B3
:10029000723E0A0A0D0011241FBECFEFD8E0DEBF68
:1002A000CDBF11E0A0E0B1E0E0E0FDE202C00590CA
:1002B0000D92AE37B107D9F724E0AEE7B1E001C047
:1002C0001D92A13FB207E1F70C9465060E94081148
:1002D0000DC396CEFF93EF93FC0100820FB6F89406
:1002E00004A21182228233824482558266827782FE
:1002F00080869186A286B386C486D586E686F786F2
:10030000008B118B228B338B448B558B668B778BB9
:10031000808F918FA28FB38FC48FD58F0F90068E51
:100320000F90078E0DB600A20EB601A2FB0100A031
:100330000DBE01A00EBE078C0F92068C0F92D58DBC
:10034000C48DB38DA28D918D808D778966895589F5
:1003500044893389228911890089F784E684D58408
:10036000C484B384A284918480847780668055801D
:10037000448033802280118004A00FBE0080EF9162
:10038000FF910895E0910001F0910101158289E14A
:10039000848386E0828388E181830895E09100016F
:1003A000F0910101908195FFFDCF868308951F9202
:1003B0000F920FB60F9211248F938091C6008093F5
:1003C00082018F910F900FBE0F901F901895A4E09F
:1003D000B0E0EDEEF1E00C94511319821A821B8209
:1003E0001C8219821A821B821C8209811A812B812C
:1003F0003C81061717072807390770F400000981A8
:100400001A812B813C810F5F1F4F2F4F3F4F098374
:100410001A832B833C83E9CF2496E4E00C946D137C
:1004200080E284B92D9A60E47DE083E090E0CFDF44
:100430002D9860E47DE083E090E0C9CF1092AB019D
:100440001092AC011092AD011092AE0181E00895BE
:100450001F920F920FB60F9211242F933F934F9339
:100460005F936F937F938F939F93AF93BF93EF931C
:10047000FF938091B5019091B601A091B701B09121
:10048000B8010196A11DB11D8093B5019093B601ED
:10049000A093B701B093B801883E9340A105B10580
:1004A000D8F08091B9019091BA01A091BB01B091AF
:1004B000BC010196A11DB11D8093B9019093BA01B1
:1004C000A093BB01B093BC011092B5011092B6018C
:1004D0001092B7011092B8018091AF019091B001D4
:1004E00026E0289FF001299FF00D1124E452FC4FD3
:1004F000828193818530910584F4289FF001299FA2
:10050000F00D1124E452FC4F808191810197918379
:100510008083892B11F40E942C0C8091B101909161
:10052000B201A091B301B091B4010197A109B10941
:1005300049F08093B1019093B201A093B301B093BD
:10054000B4010DC081E090E0A0E0B0E08093B10183
:100550009093B201A093B301B093B40187D7FF91F8
:10056000EF91BF91AF919F918F917F916F915F912B
:100570004F913F912F910F900FBE0F901F901895A4
:10058000B5D69093B0018093AF0181E090E0A0E0F8
:10059000B0E08093B1019093B201A093B301B09306
:1005A000B4011092B9011092BA011092BB011092DD
:1005B000BC011092B5011092B6011092B7011092D1
:1005C000B801E0910401F0910501108211821282BC
:1005D000E0910201F09103011082E0910401F09199
:1005E000050182E0808393E091839DE79383E0910E
:1005F0000201F091030180830895CF92DF92EF9280
:10060000FF92CF93DF936B017C011ED5D82F83E03F
:10061000C816D104E104F10420F08D2F18D5CFEFD6
:1006200011C029E22C9DC0012D9D900D11248053F5
:100630009F4FFC0176960590F491E02D0995C82F07
:100640008D2F05D58C2FDF91CF91FF90EF90DF900C
:10065000CF900895A6E0B0E0E0E3F3E00C944313FC
:100660002B8D29838C8CED8CFE8C09A13AA13E83C5
:10067000EBD4982E40E4E416F1041CF470E4E72E69
:10068000F12C83E0E80EF11C9CEFE92227010F2CEE
:10069000000C66087708C301B20169D21C010196FB
:1006A00079F480E691E00E94650C892DD0D4FFEFAB
:1006B000FA832FEF2B833FEF3C834FEF4D8309C12C
:1006C00030917E0120917F01809180019091810184
:1006D000A12CB12C1BE5632F722F25E030E040E008
:1006E00050E00E941D136B017C016A83DB82EC8267
:1006F000FD82169FF001179FF00D1124EF53FE4F5E
:1007000080819181B701A6014F5F5F4F6F4F7F4F8F
:10071000892B79F440937E0150937F01609380018F
:10072000709381018FEFC816D806E806F806A1F489
:10073000B8CF342F252FCB01EFEFAE1ABE0AF5E06C
:10074000AF16B10441F640937E0150937F01609350
:10075000800190938101A5CF2F8D38A11216130629
:100760000CF09FCF8091880390918903A0918A0318
:10077000B0918B030196A11DB11D809388039093C6
:100780008903A0938A03B0938B0385E090E0918363
:1007900080833383228331AE20AE42AE53AE64AE4B
:1007A00075AEDF01AB5BBF4F1C92A02FBE818F01E6
:1007B00080E090E02D91F801E80FF91F26AF222389
:1007C00021F0019687309105A9F72BE52C9DC001FA
:1007D0002D9D900D1124FC01EF53FE4F5F01EA5B4C
:1007E000FF4F8FEF9FEF91838083B8D1F501E85BD6
:1007F000FF4F608371838283938338961082319692
:1008000011821082329611821082329611821082E9
:100810008AEAF10180838BA19CA1F50193A782A7AD
:1008200020E030E0F801E20FF31F14822F5F3F4F0A
:1008300026323105B9F72BE52C9DF0012D9DF00DE9
:100840001124EF53FE4F298124AB85AA26A387A24A
:1008500020E820A7DE01959620E030E02817390730
:1008600064F44D915D91F901EE0FFF1FE00FF11F50
:1008700055A744A72F5F3F4FF1CFFC017696EE0FAF
:10088000FF1F4BE54C9D90014D9D300D1124E20F53
:10089000F31FEF53FE4F11821082F901EF53FE4F09
:1008A000848F958F23513E4F228F338F8AE29CE0B5
:1008B000D10111978C9311979C93119739813C9397
:1008C00011978C9245E0241A310824A235A2892D73
:1008D000BED36A817B818C819D812696E2E10C9456
:1008E0005F1361E070E080E090E0089537D1B8C315
:1008F000A0E0B0E0EEE7F4E00C944913EC016A01EB
:100900007B01A2D3C114D104E104F10409F447C06E
:100910002091D8033091D903C217D30708F43FC000
:100920002091DA033091DB032C173D07C0F197E0EB
:10093000C90ED11CE11CF11C98EFC922A601DD0CE7
:10094000660B770BE091D203F091D303A2EDB3E0F5
:10095000309741F0EC17FD0740F5DF010190F08181
:10096000E02DF6CF93E0A23DB907D1F11296CD90DC
:10097000DD90ED90FC9015978D010B2E000C220B55
:10098000330B0C0D1D1D2E1D3F1D6E010D2E000C79
:10099000EE08FF08C016D106E206F30618F457D396
:1009A0008FEF82C0309741F41EC093E0A23DB9079B
:1009B000E9F600E010E098016E010D2E000CEE0843
:1009C000FF08C40ED51EE61EF71E4F010F2E000CA9
:1009D000AA08BB088C149D04AE04BF0420F4DFCF2A
:1009E00000E010E09801C090D403D090D503E090CF
:1009F000D603F090D703C40ED51EE61EF71EC09294
:100A0000D403D092D503E092D603F092D7036E01BF
:100A10000D2E000CEE08FF08C016D106E206F30604
:100A200091F412960D911D912D913C911597400FC7
:100A3000511F621F731F12964D935D936D937C93AC
:100A40001597ED0108C0F983E8834A835B836C83C3
:100A50007D83CD93DC934A815B816C817D818E01A6
:100A60000D2E000C220B330B040F151F261F371FF2
:100A70006F010F2E000CEE08FF080C151D052E054A
:100A80003F0581F40281138124813581400F511F7C
:100A9000621F731F4A835B836C837D832081318156
:100AA00039832883D4D281E0CDB7DEB7ECE00C9453
:100AB000651326E0AC01249FC001259F900D1124F1
:100AC000FC01E452FC4F42815381453051051CF535
:100AD000BA01052E000C880B990B249FF001259F6D
:100AE000F00D1124E452FC4FA281B3814481558161
:100AF000249FF001259FF00D1124E452FC4FB38395
:100B0000A2832A9FF0012B9FF00D1124E452FC4F89
:100B10005583448308956FEF7FEFCB01089546E03E
:100B2000469FF001479FF00D1124E452FC4FA28133
:100B3000B38124813581429FF001439FF00D112440
:100B4000E452FC4FB383A2834A9FF0014B9FF00D08
:100B50001124E452FC4F3583248308956091BD0134
:100B60007091BE018091BF019091C0010895A0E0F5
:100B7000B0E0EDEBF5E00C944D136B017C0164D219
:100B8000C114D104E104F10449F197E0C90ED11C6C
:100B9000E11CF11C98EFC9220D2C000CEE08FF0897
:100BA000E091D203F091D303A0E0B0E0C0E0D0E048
:100BB00022ED33E0309781F0428153816481758169
:100BC0004C155D056E057F0510F0D901EF019F0101
:100BD0000190F081E02DEECF209721F438D28FEFF5
:100BE0009FEF41C00A811B812C813D81C016D10637
:100BF000E206F30629F4288139812D933C9311C034
:100C00000C191D092E093F090A831B832C833D8380
:100C1000AE01DD0F660B770B040F151F261F371F64
:100C2000E8014091D4035091D5036091D6037091AF
:100C3000D7034C195D096E097F094093D403509383
:100C4000D5036093D6037093D70301D2D701C601B1
:100C50000497A109B109AE01DD0F660B770B840F74
:100C6000951FA61FB71FCDB7DEB7E8E00C94691338
:100C7000CF92DF92EF92FF92CF93DF936B017C01D3
:100C8000E3D1D82F83E0C816D104E104F10420F0A9
:100C90008D2FDDD1CFEF11C029E22C9DC0012D9DFC
:100CA000900D112480539F4FFC0172960590F49192
:100CB000E02D0995C82F8D2FCAD18C2FDF91CF91B0
:100CC000FF90EF90DF90CF9008957BD38CE191E07F
:100CD0009F938F93A5D28AED91E0F7D5D0D2109251
:100CE00088031092890310928A0310928B0310924A
:100CF0008C0410928D0410928E0410928F04E1ECFB
:100D0000F1E00F900F901182108216AE11AE10AE6E
:100D100013821282E55AFF4F83E0E838F80799F70B
:100D2000CCE8D3E002ED13E0188219821A821B820C
:100D30001C82DCD29E838D8327960C171D07A1F79A
:100D40007DDBD4D290938B0480938A0460E070E0C2
:100D5000CB018EDF61E070E080E090E089DF62E04F
:100D600070E080E090E084DF0BDCE091D203F09152
:100D7000D30380E090E0DC01309761F04281538141
:100D800064817581840F951FA61FB71F0190F081A4
:100D9000E02DF2CFBF93AF939F938F938AE291E0C0
:100DA0009F938F933DD21F921F921F921F9280E4B8
:100DB00091E09F938F931F928AE08F931F9280E41C
:100DC0008F931F921F9246DC2BE5269FF001279FF1
:100DD000F00D1124EF53FE4F81E090E0918380836A
:100DE00038D11F921F921F921F9286E491E09F9329
:100DF0008F931F9284E18F9382E08F931F9288E0FC
:100E000091E19F938F9326DC02D48DB79EB74E96C7
:100E10000FB6F8949EBF0FBE8DBFFFCF1F93CF9329
:100E2000DF93FA013597779708F054C06530710564
:100E30008105910508F04EC03BE5369FF001379FD4
:100E4000F00D1124EF53FE4F0190F081E02DEF2BB8
:100E500009F440C036E0349FF001359FF00D1124B5
:100E6000E452FC4F42815381022E000C330BC6E04A
:100E700016E0C49FF001C59FF00D1124E452FC4F11
:100E8000A081B181A217B30718F042815381F0CF3E
:100E9000C481D581169FD001179FB00D1124A45293
:100EA000BC4F13965C934E9312971596DC93CE939A
:100EB00014972D933C931C9FD0011D9FB00D1124BE
:100EC000A452BC4F13967C936E93129775836483E0
:100ED00081E001C08FEFDF91CF911F9108954F9274
:100EE0005F926F927F928F929F92AF92BF92CF92BA
:100EF000DF92EF92FF92CF93DF9300D000D0CDB777
:100F0000DEB76B017C01CA010597479708F088C0DE
:100F100085E0C816D104E104F10408F081C08BE536
:100F20008C9DF0018D9DF00D1124EF53FE4F8081BB
:100F30009181892B09F474C04A01052E000CAA087E
:100F4000BB0886E0849FF001859FF00D1124E452D8
:100F5000FC4F82819381092E000CAA0BBB0B4F5FC3
:100F60005F4F2A01550F6608770849825A826B82C3
:100F70007C8266E049805A806B807C808415950570
:100F8000A605B70569F566E06C9DF0016D9DF00D55
:100F90001124E452FC4F5382428295828482318331
:100FA0002083689DA001699D500D1124FA01E4522F
:100FB000FC4FD382C282649DF001659DF00D112427
:100FC000E452FC4FD582C48284159505A605B70569
:100FD00029F180819181821B930B918380831EC0B4
:100FE000689FF001699FF00D1124E452FC4F40818D
:100FF00051812417350758F0241B350B428153814A
:101000004C015D01CA01550FAA0BBB0BB3CF2C01DC
:101010003D0189819A81AB81BC81B5CF81E001C05E
:101020008FEF0F900F900F900F90DF91CF91FF9067
:10103000EF90DF90CF90BF90AF909F908F907F9078
:101040006F905F904F9008958FB7F89408958FBF79
:10105000089578940895FFCF8FEF089581E0089563
:10106000AF92BF92CF92DF92EF92FF921F93CF93F6
:10107000DF936B017C01E8DF182F85E0C816D104EF
:10108000E104F10488F48BE58C9DF0018D9DF00D59
:101090001124EF53FE4F80819181892B29F0C114D7
:1010A000D104E104F10421F4812FD1DF8FEF9DC041
:1010B0008091880390918903A0918A03B0918B035A
:1010C0000197A109B1098093880390938903A093A4
:1010D0008A03B0938B030297A105B1050CF4E8D302
:1010E0008BE58C9D50018D9DB00C1124F501E75FBF
:1010F000FD4F6081718182819381A7019601BCD2ED
:10110000C0E0D0E0FE01EA0DFB1DEE5EFD4F608108
:101110007181072E000C880B990B6FDA2296C6306E
:10112000D10581F78BE58C9DE0018D9DD00D1124BB
:10113000CF53DE4F4AAD5BAD6CAD7DAD495F5F4FC8
:101140006F4F7F4F487F052E000C660B770B88ADE5
:1011500099AD092E000CAA0BBB0B0496A11DB11D65
:10116000841B950BA60BB70BC3DB88819981843058
:10117000910581F030F48130910549F0029729F111
:1011800027C08630910551F0079721F021C01982C0
:1011900018826CD1C701B6010FD31AC0CA5BDF4FEA
:1011A0008881998127E0289FF001299FF00D112463
:1011B000E457FC4F81819281A381B4810196A11DE6
:1011C000B11D81839283A383B483C701B601A7DCD9
:1011D0008BE58C9DF0018D9DF00D1124EF53FE4F9A
:1011E00011821082812F33DF81E0DF91CF911F9137
:1011F000FF90EF90DF90CF90BF90AF900895CF9386
:10120000DF93C82F21DFD82FCA3011F48DE0C6D864
:101210008C2FC4D88D2F1BDF81E0DF91CF910895F3
:10122000A1E5B0E0E6E1F9E00C944F138E01065A17
:101230001F4FF801E190F1908F0121E530E040E08F
:1012400050E060E070E0CE0101960E94CE1398015C
:10125000A70160E570E0CE0101960E94D5138E01D2
:101260000F5F1F4FF80181918F01882311F0C7DFB5
:10127000F9CF81E0CF5ADF4FE6E00C946B130F9368
:101280001F93CF93DF9381EF94E0A0E8BB270196F3
:10129000A11DB11DEC019093D9038093D8032FEECB
:1012A00038E03093DB032093DA03E2EDF3E091833F
:1012B000808319821882092E000CAA0BBB0B4FEEFB
:1012C00058E060E070E08A019B01081B190B2A0BB3
:1012D0003B0B0A831B832C833D830283138324836C
:1012E0003583DF91CF911F910F91089520910601D1
:1012F000309107012D31310544F5C90102969093D3
:10130000070180930601A9014F5F5F4F66E0629F6E
:10131000F001639FF00D1124E452FC4F538342838C
:101320008FEF9FEF9583848391838083649FF00187
:10133000659FF00D1124E452FC4F93838283358323
:10134000248311821082C90108958FEF9FEF0895C1
:101350008F929F92AF92BF92EF92FF920F931F9343
:10136000CF93DF934B015C018A0179016DDED82FA9
:1013700083E088169104A104B10420F08D2F67DE6C
:10138000CFEF13C029E2289DC001299D900D1124A3
:1013900080539F4FFC0174960590F491E02DA701B6
:1013A000B8010995C82F8D2F52DE8C2FDF91CF9178
:1013B0001F910F91FF90EF90BF90AF909F908F90F3
:1013C0000895F8942DD82CD80E94C2018ACACF93D0
:1013D0009C012550310927313105F8F4C6E0C89F3A
:1013E000F001C99FF00D1124E452FC4F228133819A
:1013F0002530310594F45DDBC69FF001C79FF00DE9
:101400001124E452FC4F2FEF3FEF358324833383C5
:101410002283462F372F282F04C04FEF3FEF2FEFA7
:101420009FEF642F732F822FCF9108956530710540
:1014300081059105C8F42BE5269FF001279FF00D4B
:101440001124EF53FE4F20813181232B69F022E0DC
:1014500030E03183208340918A0450918B042281B3
:10146000DDDC04D081E008958FEF0895CF92DF9204
:10147000EF92FF9280918C0490918D04A0918E0444
:10148000B0918F04181619061A061B0624F481E081
:10149000809390046BC0C090BD01D090BE01E090DD
:1014A000BF01F090C0018BE58C9DF0018D9DF00D8A
:1014B0001124EF53FE4F80819181019729F52281FC
:1014C000338140918A0450918B0486E0849FD0013F
:1014D000859FB00D1124A452BC4F12966D917C9142
:1014E0001397869FD001879FB00D1124A452BC4F43
:1014F0008D919C9182179307C8F182E090E09183CF
:101500008083C701B6018ADC80918A0490918B04A4
:101510005EDF6093BD017093BE018093BF01909325
:10152000C0012BE5269FD001279FB00D1124FD019E
:10153000EF53FE4F41E050E05183408341E050E0E3
:1015400060E070E04093B1015093B2016093B30149
:101550007093B401BD016B537E4F2C9DC0012D9D36
:10156000900D11248B539E4F0E946A01FF90EF90C3
:10157000DF90CF900895613071058105910531F0BC
:101580006230710581059105F1F03FC080918C04B6
:1015900090918D04A0918E04B0918F04AC01BD0197
:1015A0004F5F5F4F6F4F7F4F40938C0450938D047C
:1015B00060938E0470938F04892B8A2B8B2B19F5E3
:1015C0001092900420C080918C0490918D04A09181
:1015D0008E04B0918F04181619061A061B06ACF477
:1015E0000197A109B10980938C0490938D04A09375
:1015F0008E04B0938F04892B8A2B8B2B21F480913E
:101600009004811133DF81E008958FEF0895CF9228
:10161000DF92EF92FF921F93CF93DF936B017C01D8
:1016200013DD182F85E0C816D104E104F10470F42D
:101630008BE58C9DF0018D9DF00D1124EF53FE4F35
:1016400080819181009711F0059729F0812FFFDCAF
:101650008FEF9FEF09C0D281C381C701B601E6DEDB
:10166000812FF5DC8D2F9C2FDF91CF911F91FF9063
:10167000EF90DF90CF9008958F929F92AF92BF929C
:10168000CF92DF92EF92FF92CF934B015C01690101
:101690007A01DADCC82F85E088169104A104B10430
:1016A00090F48BE5889DF001899DF00D1124EF5396
:1016B000FE4F80819181009731F0DF01A05BBF4F29
:1016C0002C91222321F08C2FC2DC8FEF16C0E45B1B
:1016D000FF4FC082D182E282F38221E02C938330DB
:1016E000910529F0079731F4C501B40165D0C50112
:1016F000B4019CDE8C2FABDC81E0CF91FF90EF90AA
:10170000DF90CF90BF90AF909F908F900895CF9231
:10171000DF92EF92FF92CF93DF9397FD33C06B017F
:101720007C01672B682B692B11F4C6D029C08CDC97
:10173000D82F4091AF015091B0016091BD017091DF
:10174000BE018091BF019091C0019601C8DBC82FF6
:101750008F3F19F48D2F7BDC16C08091BD019091D5
:10176000BE012BE5289FF001299FF00D1124EF53B6
:10177000FE4F84E090E09183808378DE8D2F67DCDC
:10178000C1E001C0CFEF8C2FDF91CF91FF90EF90A0
:10179000DF90CF9008956C3924EC720720E2820725
:1017A000910540F49B01AC01A8EEB3E062D7AFDF36
:1017B00081E008958FEF0895CF92DF92EF92FF922C
:1017C000CF936B017C0140DCC82F85E0C816D104A3
:1017D000E104F10488F48BE58C9DF0018D9DF00D02
:1017E0001124EF53FE4F80819181009729F08430BE
:1017F000910531F0079721F08C2F29DC8FEF24C061
:1018000026E02C9DD0012D9DB00D1124A452BC4F7B
:1018100012968D919C911397853091057CF4289FA9
:10182000F001299FF00D1124E452FC4F20813181F9
:101830008D919C91820F931F91838083C701B60184
:101840006ED98C2F04DC81E0CF91FF90EF90DF9078
:10185000CF90089583D904CCCF9361E070E080E00D
:1018600090E089DEC6E08091AF019091B001C89F01
:10187000F001C99FF00D1124E452FC4F2281338105
:101880002530310574F4C29FF001C39FF00D11247F
:10189000E452FC4F20813181232B19F498DDC6DD01
:1018A000E2CF62E070E080E090E065DECF910895E5
:1018B00083EB91E00AD0CFCBCF93C6DBC82FD6DD28
:1018C0008C2FC5DB81E0CF91089508950F931F936E
:1018D00000E010E09801041715072607370764F4A5
:1018E000DC01ED91CD010F5F1F4F2F4F3F4FE111F5
:1018F000F2CFB801C90104C06FEF7FEF8FEF9FEF08
:101900001F910F910895A6E0B0E0E8E8FCE0BBC6A7
:10191000182F9C831B0169017A0196DB082F40E197
:1019200050E060E070E0812F9C81D0DF4B015C01D2
:1019300041E050E060E070E0C101C8DF2B013C01F4
:101940002FEF82169206A206B20649F16F3F7F4F33
:101950008F4F9F4F21F153E0C516D104E104F104EC
:10196000F0F48091910490919204A0919304B0912D
:10197000940484309105A105B1058CF419831C8170
:101980001A8325E1289FA001299F500D11245E8311
:101990004D8320E030E040E050E0BA0104C0802FE9
:1019A00056DB8FEF42C0481559056A057B059CF44C
:1019B000E981FA811191FA83E983ED81FE81E20FD9
:1019C000F31FEB56FB4F10834F5F5F4F6F4F7F4FFF
:1019D0002F5F3F4FE8CF14141504160417045CF46E
:1019E000F101208135E1389FF001399FF00D11247C
:1019F000EB56FB4F208B25E1289FF001299FF00D2E
:101A00001124EB56FB4FC18AD28AE38AF48A0196ED
:101A1000A11DB11D8093910490939204A09393040F
:101A2000B0939404802F13DB81E02696E2E147C651
:101A3000A0E2B0E0EDE1FDE02AC686E0EBE4F1E0F3
:101A4000DE015B9601900D928A95E1F71092910468
:101A50001092920410929304109294048BE491E0FB
:101A600034DF80EDA82E80E0B82E88E090E09C0165
:101A7000205D30404901DE015B968E010F5F1F4FF4
:101A8000C12CD12C760138018D91F80181938823E6
:101A900039F03FEFC31AD30AE30AF30A8F01F4CFF8
:101AA000B4016A0D7B1D60537F4F4AE050E0CE01C8
:101AB000419665D6FE017196BFEFCB1ADB0AEB0AA1
:101AC000FB0A20E1C216D104E104F10464F481911F
:101AD0009FEB980F9A3108F4805ED8018D938D01A9
:101AE0008111EACF09C030E1C316D104E104F10449
:101AF00019F081E791E00DC0F501259135914591EF
:101B000055916FE371E0C301FEDE8F3F19F486E962
:101B100091E0DBDEF9E2AF0EB11C2BE4A21621E06E
:101B2000B20609F0A8CF2FEF3FEFA9016FE371E0F4
:101B30008BE491E0E8DE81E0A096EEE0C4C54F9230
:101B40005F926F927F928F929F92AF92BF92DF923D
:101B5000EF92FF920F931F93CF93DF9300D000D0AB
:101B60001F92CDB7DEB7E0909104F09092040091FF
:101B7000930410919404E982FA820B831C8325E973
:101B800034E0812C912C5401E980FA800B811C8176
:101B90008E149F04A006B106ACF47C01F901412C1F
:101BA000512C3201D70141914423C1F00FEFE01ACB
:101BB000F00A5C9145130AC01FEF411A510A610AED
:101BC000710AF0CF6FEF7FEFCB0165C00FEF801A86
:101BD000900AA00AB00A2B5E3F4FD6CF7D83D62E47
:101BE00040E150E060E070E071DE698385E1889D4E
:101BF0008001899D100D11240B551B4F40E150E0D1
:101C000060E070E0C80162DEA9812A2FAA0F330BC1
:101C1000440B550B24193509460957092B013C0182
:101C2000B1E04B1A510861087108420E531E641E40
:101C3000751EE1E14E165104610471041CF62B017E
:101C40003C01D801ED2DFD8181E0481A5108610861
:101C5000710814141504160417041CF48D91819353
:101C6000F3CF12161306140615064CF4D7018D9106
:101C70007D0181932150310941095109F2CF85E15C
:101C8000889DF001899DF00D1124EB56FB4F618971
:101C90007289838994890F900F900F900F900F9005
:101CA000DF91CF911F910F91FF90EF90DF90BF9048
:101CB000AF909F908F907F906F905F904F9008951E
:101CC000CF92DF92EF92FF92FB01C12CD12C7601D3
:101CD000C216D306E406F50664F46191DC016D9347
:101CE000CD01662341F0BFEFCB1ADB0AEB0AFB0AFA
:101CF000EFCF8FEF01C081E0FF90EF90DF90CF90AA
:101D00000895A0E1B0E0E6E8FEE0C3C48B0149011C
:101D10005A0120E130E040E050E0BC01CE010196E4
:101D2000CFDF8F3FF1F0C12CD12C76010DC020E127
:101D300030E040E050E0B801CE010196C1DF8FEF06
:101D4000C81AD80AE80AF80A80919104909192047E
:101D5000A0919304B0919404C816D906EA06FB0634
:101D600014F08FEF0AC0B801CE010196E8DE6815C5
:101D700079058A059B05D9F2862F6096ECE0A5C40B
:101D8000A0E1B0E0E5ECFEE08CC4FC01CB018A01EF
:101D90002591359145915591BE016F5F7F4FB1DF20
:101DA000682F880F770B880B990B6F3F2FEF720707
:101DB0008207920731F09801AE014F5F5F4FC8DA9A
:101DC00001C08FEF6096E4E088C48091ED049091AB
:101DD000EE04892B29F41092EA041092E904089584
:101DE0001BD3892B91F3F7CF0F931F93CF93DF93DF
:101DF0008C01C0E0D0E08091ED049091EE04892B3D
:101E000051F0C017D1073CF461E070E080E090E051
:101E1000C2DC2196F0CFDF91CF911F910F910895F1
:101E20008091E9049091EA04892BE1F48091ED041A
:101E30009091EE04892B81F016D3892B39F081E043
:101E400090E09093EA048093E904089564E670E0DA
:101E500080E090E05CDCEACF089564E670E080E02A
:101E600090E055DC8091ED049091EE04892B41F0D7
:101E7000D3D2892B91F31092EA041092E9040895C9
:101E80000895A0E0B0E0E6E4FFE005C4CC24C394EC
:101E9000D12C02E010E093E0E92EF12C24E0A22EF8
:101EA000B12C8091ED049091EE04892B09F43EC091
:101EB000D092F004C092EF0488DFC1E0D0E0D0936C
:101EC000EC04C093EB041093F0040093EF04A8DF3C
:101ED000F092F004E092EF048AE090E085DF109346
:101EE000F0040093EF049CDFF092F004E092EF0422
:101EF0008AE090E079DF1093F0040093EF0490DF24
:101F0000F092F004E092EF048AE090E06DDFB0928E
:101F1000F004A092EF048AE090E066DF2196C231DF
:101F2000D10569F61092F0041092EF0462E070E0BF
:101F300080E090E030DCB5CF8830910524F08E3021
:101F40009105F4F066C06115710529F4E09108016E
:101F5000F09109011DC06130710529F4E09108017B
:101F6000F09109012AC06230710529F4E09108015D
:101F7000F091090131C0E0910C01F0910D013CC0DC
:101F800008976115710591F4E0911401F091150124
:101F9000308141E050E0BA0102C0660F771F8A9598
:101FA000E2F7CB0180958323808330C061307105D7
:101FB00061F4E0911401F0911501908101C0660F68
:101FC0008A95EAF7692B608321C06230710581F43C
:101FD000E0911401F0911501308141E050E0BA0127
:101FE00002C0660F771F8A95E2F7CB018327DCCF0B
:101FF000E0911801F0911901208130E0A90102C09F
:10200000559547958A95E2F7242F2170822F90E00D
:1020100008950E976115710529F4E0910E01F09174
:102020000F01B6CF6130710529F4E0910E01F091F6
:102030000F01C3CF6230710529F4E0910E01F091D8
:102040000F01CACFE0911201F0911301D5CF883072
:1020500091059CF18E309105C4F4E0911401F0914A
:1020600015014081089721E030E0B90102C0660FF8
:10207000771F8A95E2F7CB018095942F9823908360
:10208000E0911601F09117012EC0E0910E01F09140
:102090000F0140810E9721E030E0B90102C0660FC8
:1020A000771F8A95E2F7CB018095942F9823908330
:1020B000E0911001F091110116C0E0910801F0913A
:1020C0000901408121E030E0B90102C0660F771FAD
:1020D0008A95E2F7CB018095942F98239083E09125
:1020E0000A01F0910B019081892380830895883043
:1020F0009105ACF18E309105C4F4E0911401F0919A
:1021000015014081089721E030E0B90102C0660F57
:10211000771F8A95E2F7CB01962F909594239083B1
:10212000E0911601F091170130C0E0910E01F0919D
:102130000F0140810E9721E030E0B90102C0660F27
:10214000771F8A95E2F7CB018095942F982390838F
:10215000E0911001F09111019081892318C0E09164
:102160000801F0910901408121E030E0B90102C08D
:10217000660F771F8A95E2F7CB01962F90959423EF
:102180009083E0910A01F0910B019081892B80836B
:1021900008958DE090E0ABDF60E070E08DE090E0CE
:1021A000CBDE8091ED049091EE04892B19F0C0E014
:1021B000D0E006C062E070E080E090E0ECDAF1CFC1
:1021C0008091EB049091EC04C817D9079CF761E06B
:1021D00070E08DE090E0B0DE64EF71E080E090E0D0
:1021E00096DA60E070E08DE090E0A6DE64EF71E0EA
:1021F00080E090E08CDA2196E3CF63E070E09CDE33
:1022000021E030E0892B11F020E030E0C901089591
:10221000A0E0B0E0EDE0F1E140C21092EE041092D7
:10222000ED041092EC041092EB0444D1BFD0109254
:10223000EC041092EB041092EE041092ED041F9245
:102240001F921F921F9281E591E09F938F931F929F
:10225000C4E1CF931F9280E48F9389EC90E19F9328
:102260008F930E942A03D3D91F921F921F921F920D
:1022700085E591E09F938F931F92CF9381E08F9399
:102280001F9281E49FE09F938F930E942A03BFD9FE
:102290001092F0041092EF048CE090E0D8DE61E040
:1022A00070E08CE090E048DE8BE090E0D0DE61E012
:1022B00070E08BE090E040DE8AE090E0C8DE61E014
:1022C00070E08AE090E038DE8DB79EB748960FB692
:1022D000F8949EBF0FBE8DBF00E010E0C0E0D0E0DC
:1022E000EE24E394F12C86E0C82ED12C8AE090E015
:1022F00084DF892B69F189E591E0F1D091E0C91A79
:10230000D10801F58091ED049091EE04892B69F0DC
:102310001092EC041092EB041092EE041092ED0473
:102320001092F0041092EF0413C0F092EC04E092CB
:10233000EB04F092EE04E092ED04F092F004E092EF
:10234000EF0406C068EE73E080E090E0E0D9CECF05
:102350008CE090E052DF892B31F05ED000E010E09D
:10236000C1E0D0E013C08BE090E047DF892B21F083
:102370007AD001E010E008C00115110511F4209792
:1023800029F024D000E010E0C0E0D0E068EE73E077
:1023900080E090E0BCD964E070E08091EF0490911F
:1023A000F004FAD082E691E09AD09DCF60E070E030
:1023B00084E090E0C1DD84E090E099DE60E070E0D0
:1023C00085E090E0B9DD85E090E091CE84E090E09A
:1023D0008EDE85E090E08BDE60E070E084E090E0EF
:1023E000ABDD60E070E085E090E0A6DD87E691E09F
:1023F00076C0CF93DF93EB0164E070E0CDD08EE642
:1024000091E06DD064E070E0CE01C6D082E691E04C
:1024100066D0DF91CF9108950F931F93CF93DF93F1
:1024200068E070E088E090E0C2D08C01049774F01E
:1024300085E090E05CDE61E070E085E090E07CDDCE
:1024400081E791E04CD0C0E0D0E003C0BFDFC1E045
:10245000D0E064E070E0C801CCDFCE01DF91CF9125
:102460001F910F9108950F931F93CF93DF9368E00F
:1024700070E088E090E09BD08C01049774F084E0D9
:1024800090E035DE61E070E084E090E055DD87E7C4
:1024900091E025D0C0E0D0E003C098DFC1E0D0E0FB
:1024A000B80184E090E0A5DFCE01DF91CF911F91CC
:1024B0000F910895E0911A01F0911B01158289E1B5
:1024C000848386E0828388E181830895E0911A0104
:1024D000F0911B01908195FFFDCF86830895CF93E6
:1024E000DF93EC018991882311F0F0DFFBCFDF91BE
:1024F000CF910895AAE0B0E0EFE7F2E1C6C06B012A
:102500007C018A01CE0101965C018AE0F5011192FD
:102510008A95E9F7C114D104E104F10419F480E3C8
:10252000D5DF37C0F7FE0AC08DE2D0DFF094E0942B
:10253000D094C094C11CD11CE11CF11C45018AE05F
:10254000482E512C612C712CC701B601A3019201B8
:1025500074D0F40161934F0169017A01CF018A19A6
:102560009B09C114D104E104F10471F798012150D1
:1025700031092A30310508F08C017501E00EF11E99
:10258000EA14FB0431F0F70182917F01805D9EDF48
:10259000F7CF2A96E0E195C0AB016630710514F0E3
:1025A00045E050E0BC01990F880B990BA3CFFF9237
:1025B0000F931F93CF93DF93EC018B0198DD61E0C4
:1025C00070E0CE01B9DC8DE08A95F1F760E070E053
:1025D000CE01B2DCC8013BDD63E070E0C801ACDCD9
:1025E000892BD1F3C0E0D0E086E0F82E63E070E004
:1025F000C801A2DC892B29F08F2D8A95F1F7259649
:10260000F5CFCE016AE370E005D0CB01CDB7DEB7E0
:10261000E5E062C097FB072E16F4009406D077FD24
:1026200008D068D007FC05D03EF4909581959F4F67
:102630000895709561957F4F0895052E97FB16F4C8
:1026400000940FD057FD05D069D007FC02D046F4A6
:1026500008C050954095309521953F4F4F4F5F4FA3
:10266000089590958095709561957F4F8F4F9F4FFE
:10267000089576D0A59F900DB49F900DA49F800DD6
:10268000911D112408952F923F924F925F926F9265
:102690007F928F929F92AF92BF92CF92DF92EF92F2
:1026A000FF920F931F93CF93DF93CDB7DEB7CA1B73
:1026B000DB0B0FB6F894DEBF0FBECDBF09942A889E
:1026C000398848885F846E847D848C849B84AA8446
:1026D000B984C884DF80EE80FD800C811B81AA81D3
:1026E000B981CE0FD11D0FB6F894DEBF0FBECDBF9E
:1026F000ED010895AA1BBB1B51E107C0AA1FBB1F18
:10270000A617B70710F0A61BB70B881F991F5A957D
:10271000A9F780959095BC01CD010895A1E21A2EEC
:10272000AA1BBB1BFD010DC0AA1FBB1FEE1FFF1F75
:10273000A217B307E407F50720F0A21BB30BE40BC5
:10274000F50B661F771F881F991F1A9469F760950C
:102750007095809590959B01AC01BD01CF010895C6
:10276000A29FB001B39FC001A39F700D811D1124D2
:10277000911DB29F700D811D1124911D0895FB01C3
:10278000DC014150504048F005900D920020C9F7FF
:1027900001C01D9241505040E0F70895DC0101C096
:1027A0006D9341505040E0F70895AEE0B0E0EAED9F
:1027B000F3E177CF8C01FA0186E08C831A830983D9
:1027C00077FF02C060E070E8CB0101979E838D83A4
:1027D000A901BF01CE01019611D04D815E8157FD47
:1027E0000AC02F813885421753070CF49A01F8016B
:1027F000E20FF31F10822E96E4E06FCFABE0B0E063
:10280000E3E0F4E140CF6C017B018A01FC01178217
:102810001682838181FFBFC1CE0101963C01F60182
:102820009381F70193FD859193FF81917F01882327
:1028300009F4ADC1853239F493FD859193FF8191FF
:102840007F01853221F4B60190E0C0D1E8CF912C10
:10285000212C312CFFE1F315D8F08B3279F038F4CC
:10286000803279F08332A1F4232D20611DC08D3296
:1028700061F0803369F4232D216016C0832D8260BE
:10288000382EE32DE4603E2E2AC0F32DF8601DC0E3
:1028900037FC2DC020ED280F2A3040F08E32B9F4DD
:1028A00036FC75C1232D2064322E19C036FE06C0B9
:1028B0008AE0989E200D1124922E11C0EAE02E9EEF
:1028C000200D1124222EF32DF0623F2E08C08C36ED
:1028D00021F4832D8068382E02C0883641F4F70138
:1028E00093FD859193FF81917F018111B3CF982F43
:1028F0009F7D9554933028F40C5F1F4F9FE399837D
:102900000DC0833631F0833771F0833509F055C03F
:1029100020C0F801808189830E5F1F4F8824839433
:10292000912C530112C02801F2E04F0E511CF80106
:10293000A080B18036FE03C0692D70E002C06FEF49
:102940007FEFC50138D14C018201F32DFF773F2E77
:1029500015C0280122E0420E511CF801A080B18070
:1029600036FE03C0692D70E002C06FEF7FEFC50136
:1029700017D14C01F32DF0683F2E820133FC19C0B2
:10298000822D90E088169906A0F4B60180E290E0CE
:102990001DD12A94F5CFF50137FC859137FE819141
:1029A0005F01B60190E012D121102A9421E0821A31
:1029B00091088114910479F7E1C0843611F08936C9
:1029C00039F5F80137FE07C06081718182819381FA
:1029D0000C5F1F4F08C060817181072E000C880BAF
:1029E000990B0E5F1F4FF32DFF763F2E97FF09C007
:1029F00090958095709561957F4F8F4F9F4FF068B0
:102A00003F2E2AE030E0A3011DD1882E861844C055
:102A1000853731F4232D2F7EB22E2AE030E025C0F9
:102A2000932D997FB92E8F36C1F018F4883579F03F
:102A3000AEC0803719F0883721F0A9C0E92FE061D6
:102A4000BE2EB4FE0DC0FB2DF460BF2E09C034FEB7
:102A50000AC0292F2660B22E06C028E030E005C04B
:102A600020E130E002C020E132E0F801B7FE07C00B
:102A700060817181828193810C5F1F4F06C06081EC
:102A8000718180E090E00E5F1F4FA301DBD0882EA4
:102A90008618FB2DFF773F2E36FE0DC0232D2E7F8F
:102AA000A22E891458F434FE0BC032FC09C0832DC9
:102AB0008E7EA82E05C0B82CA32C03C0B82C01C054
:102AC000B92CA4FE0FC0FE01E80DF11D80818033FA
:102AD00021F49A2D997EA92E09C0A2FE06C0B394B6
:102AE000B39404C08A2D867809F0B394A3FC10C077
:102AF000A0FE06C0B21480F4280C922C9B180DC0C6
:102B0000B21458F4B60180E290E060D0B394F8CFEC
:102B1000B21418F42B1802C0982C212CA4FE0FC05C
:102B2000B60180E390E052D0A2FE16C0A1FC03C023
:102B300088E790E002C088E590E0B6010CC08A2DDD
:102B4000867851F0A1FE02C08BE201C080E2A7FCB2
:102B50008DE2B60190E03AD0891430F4B60180E3FA
:102B600090E034D09A94F8CF8A94F301E80DF11DE7
:102B70008081B60190E02AD08110F6CF222009F49E
:102B80004ECEB60180E290E021D02A94F7CFF60134
:102B90008681978102C08FEF9FEF2B96E2E18FCD68
:102BA000FC010590615070400110D8F78095909518
:102BB0008E0F9F1F0895FC0161507040019001101D
:102BC000D8F7809590958E0F9F1F08950F931F93B0
:102BD000CF93DF93FB01238121FD03C08FEF9FEF94
:102BE0002CC022FF16C046815781248135814217AF
:102BF000530744F4A081B1819D012F5F3F4F318382
:102C000020838C93268137812F5F3F4F3783268324
:102C100014C08B01EC01FB010084F185E02D0995C6
:102C2000892BE1F6D80116968D919C911797019604
:102C300017969C938E931697CE01DF91CF911F919B
:102C40000F910895FA01AA27283051F1203181F11E
:102C5000E8946F936E7F6E5F7F4F8F4F9F4FAF4FA4
:102C6000B1E03ED0B4E03CD0670F781F891F9A1FB7
:102C7000A11D680F791F8A1F911DA11D6A0F711D6B
:102C8000811D911DA11D20D009F468943F912AE077
:102C9000269F11243019305D3193DEF6CF0108955F
:102CA000462F4770405D4193B3E00FD0C9F7F6CF90
:102CB000462F4F70405D4A3318F0495D31FD405258
:102CC000419302D0A9F7EACFB4E0A69597958795EE
:102CD00077956795BA95C9F70097610571050895CD
:102CE0009B01AC010A2E0694579547953795279579
:102CF000BA95C9F7620F731F841F951FA01D089511
:102D0000C0007000B00005002B002A002900280038
:102D100027002600250024002300C000201B5B3074
:102D20006D1B5B324A1B5B3B48000A467265654D72
:102D3000454D3A256420286279746573290A0A0092
:102D40006E756C6C70006D61696E002F6465762F16
:102D5000006C65640062726100474C4F42414C0A4E
:102D60000D0020200A0D0073746F700A0D002020E2
:0E2D700000697A710A0D006465720A0D000098
:00000001FF
