:100000000C9434000C9451000C9451000C94510049
:100010000C9451000C9451000C9451000C9451001C
:100020000C9451000C9451000C9451000C9451000C
:100030000C9451000C9451000C9451000C945100FC
:100040000C9451000C9451000C9451000C945100EC
:100050000C9451000C9451000C9451000C945100DC
:100060000C9451000C94510011241FBECFEFD8E026
:10007000DEBFCDBF11E0A0E0B1E0EEE7F1E002C0ED
:1000800005900D92AC30B107D9F721E0ACE0B1E0BA
:1000900001C01D92AD30B207E1F70E94B8000C9488
:1000A000BD000C940000CF93DF9300D000D0CDB7FB
:1000B000DEB719821A821B821C8289819A81AB81E8
:1000C000BC8188399A43A105B10560F489819A8180
:1000D000AB81BC810196A11DB11D89839A83AB833D
:1000E000BC83EBCF0F900F900F900F90DF91CF91CB
:1000F0000895E0910A01F0910B018081807E808358
:10010000E0910801F091090180818F618083089559
:1001100080910001A0910A01B0910B01E0910C01C6
:100120000E2E000CFF0BEF5FFE4F813041F48081FB
:100130008C930E94530080910C018F5F07C08081D7
:100140008C930E94530080910C01815080930C018C
:1001500080910C01853021F41092000183E005C0EC
:100160008F3F29F481E08093000180930C01089572
:0E0170000E9479000E948800FDCFF894FFCF16
:0C017E00011008040201230024002500E9
:00000001FF
